:100000000C9434000C9451000C9451000C94510049
:100010000C9451000C9451000C9451000C9451001C
:100020000C9451000C9451000C9451000C9451000C
:100030000C9451000C9451000C9451000C945100FC
:100040000C9451000C9451000C9451000C945100EC
:100050000C9451000C9401020C9451000C9451002A
:100060000C9451000C94510011241FBECFEFD8E026
:10007000DEBFCDBF11E0A0E0B1E0E0E1F8E002C0FA
:1000800005900D92AC31B107D9F721E0ACE1B1E0B8
:1000900001C01D92AE31B207E1F70E946E010C94CF
:1000A00006040C940000429A00C042980895CF9331
:1000B000C82F662311F0419A01C041984398229AB3
:1000C000239A249A259A2D982C982B982A98CC23F9
:1000D0000CF42D9AC6FD2C9AC5FD2B9AC4FD2A9AC4
:1000E0000E9453002D982C982B982A98C3FD2D9A86
:1000F000C2FD2C9AC1FD2B9AC0FD2A9A0E94530082
:100100002A9A2B9A2C9A2D9ACF910895882311F030
:10011000419A01C04198439A22982398249825989F
:10012000429A00C01A9B02C080E101C080E01B9986
:1001300080621C9980641D998068429800C0429A30
:1001400000C01A9981601B9982601C9984601D9976
:10015000886042980895CF93DF93C0E6DAEE01C03D
:10016000219780E00E948600882314F42097C1F72D
:1001700081E090E00197F1F7CD2B21F080E00E9423
:10018000860001C08FEFDF91CF910895CF93C82FE4
:100190000E94AB0060E08C2F0E945700CF91089521
:1001A000611104C080580E94C600089580540E94C6
:1001B000C600089581E00E94C6000895CF93C82F1D
:1001C0000E94AB00CA3049F4803410F080E001C0D6
:1001D00080E480580E94C60013C0803129F460E09A
:1001E00080EC0E94570006C0803521F460E080E872
:1001F0000E9457000E94AB0061E08C2F0E945700C4
:10020000CF910895CF93DF93EC012196FC0180817B
:10021000882329F00E94DE0089918111FBCFDF91B4
:10022000CF9108951F93CF93DF93182F399A3B9A5C
:100230003A9A229A239A249A259A80E999E3019777
:10024000F1F72B9A2A9A0E94530085EF91E10197CA
:10025000F1F70E945300CAE3D0E0CE010197F1F715
:100260000E945300CE010197F1F72A980E94530093
:100270002197F1F788E20E94C6000E94AB008F3FF1
:1002800061F088E00E94C6000E94DA0086E00E94C9
:10029000C600812F0E94C60080E0DF91CF911F91A0
:1002A00008958CE00E9412010895CF93DF9381E0BE
:1002B00084B917B880E480937C00CAE7D0E08BEA69
:1002C00088831092800085E0809381000E94510114
:1002D000888180648883DF91CF910895CF93DF93E5
:1002E000CDB7DEB764970FB6F894DEBF0FBECDBFB3
:1002F0000E9455017894BB24B39404E810E0B5B88B
:10030000F8011182108264C0F8016081718180E07F
:1003100090E00E94B80220E030E04AE754E40E94F6
:10032000170220E030E04AE754E40E944B036B01DF
:100330007C0120E030E040E85FE30E9446031816AD
:100340000CF50E94DA0060E080E00E94D000C70156
:10035000B6010E948902DC01CB014AE0BE016F5F59
:100360007F4F0E94DC03DC010D900020E9F711971C
:100370002EE0E0E0F1E001900D922A95E1F70E9475
:10038000020126C00E94DA0060E080E00E94D000F6
:1003900020E034E244E759E4C701B6010E944B0370
:1003A0000E948902DC01CB014AE0BE016F5F7F4FF2
:1003B0000E94DC03DC010D900020E9F711972DE08D
:1003C000EEE0F1E001900D922A95E1F70E94020122
:1003D00080911C0190911D018838924008F494CFBF
:1003E00015B8BAB81BB880911C0190911D01892BDA
:1003F000D1F71AB887EA91E60197F1F700C000003B
:100400007ECF1F920F920FB60F9211248F939F935E
:10041000809178009091790090931D0180931C0148
:100420009F918F910F900FBE0F901F9018950E9473
:100430002B020C940C030E94050358F00E94FE024C
:1004400040F029F45F3F29F00C94F50251110C940F
:1004500040030C94FB020E941D0368F39923B1F33F
:10046000552391F3951B550BBB27AA2762177307DA
:10047000840738F09F5F5F4F220F331F441FAA1F6E
:10048000A9F335D00E2E3AF0E0E832D0915050402A
:10049000E695001CCAF72BD0FE2F29D0660F771FD8
:1004A000881FBB1F261737074807AB07B0E809F0BE
:1004B000BB0B802DBF01FF2793585F4F3AF09E3F43
:1004C000510578F00C94F5020C9440035F3FE4F37F
:1004D000983ED4F3869577956795B795F7959F5F86
:1004E000C9F7880F911D9695879597F90895E1E0D2
:1004F000660F771F881FBB1F621773078407BA0731
:1005000020F0621B730B840BBA0BEE1F88F7E0958B
:1005100008950E94250388F09F5798F0B92F9927D6
:10052000B751B0F0E1F0660F771F881F991F1AF0DE
:10053000BA95C9F714C0B13091F00E943F03B1E001
:1005400008950C943F03672F782F8827B85F39F000
:10055000B93FCCF3869577956795B395D9F73EF477
:1005600090958095709561957F4F8F4F9F4F08951F
:10057000E89409C097FB3EF490958095709561953D
:100580007F4F8F4F9F4F9923A9F0F92F96E9BB27F3
:100590009395F695879577956795B795F111F8CF6F
:1005A000FAF4BB0F11F460FF1BC06F5F7F4F8F4FDA
:1005B0009F4F16C0882311F096E911C0772321F0D0
:1005C0009EE8872F762F05C0662371F096E8862F68
:1005D00070E060E02AF09A95660F771F881FDAF7BF
:1005E000880F9695879597F9089597F99F6780E802
:1005F00070E060E008959FEF80EC089500240A9475
:100600001616170618060906089500240A941216ED
:100610001306140605060895092E0394000C11F420
:10062000882352F0BB0F40F4BF2B11F460FF04C0CD
:100630006F5F7F4F8F4F9F4F089557FD9058440F26
:10064000551F59F05F3F71F04795880F97FB991F31
:1006500061F09F3F79F087950895121613061406EE
:10066000551FF2CF4695F1DF08C01616170618067B
:10067000991FF1CF86957105610508940895E89456
:10068000BB2766277727CB0197F908950E94B80307
:1006900008F48FEF08950E945E030C940C030E94EF
:1006A000FE0238F00E94050320F0952311F00C940F
:1006B000F5020C94FB0211240C9440030E941D03CC
:1006C00070F3959FC1F3950F50E0551F629FF001A5
:1006D000729FBB27F00DB11D639FAA27F00DB11DBE
:1006E000AA1F649F6627B00DA11D661F829F222747
:1006F000B00DA11D621F739FB00DA11D621F839FCE
:10070000A00D611D221F749F3327A00D611D231FA3
:10071000849F600D211D822F762F6A2F11249F57F1
:1007200050409AF0F1F088234AF0EE0FFF1FBB1FF4
:10073000661F771F881F91505040A9F79E3F5105B3
:1007400080F00C94F5020C9440035F3FE4F3983E74
:10075000D4F3869577956795B795F795E7959F5F5D
:10076000C1F7FE2B880F911D9695879597F90895EF
:10077000990F0008550FAA0BE0E8FEEF16161706B2
:10078000E807F907C0F012161306E407F50798F01A
:10079000621B730B840B950B39F40A2661F0232B33
:1007A000242B252B21F408950A2609F4A140A695AF
:1007B0008FEF811D811D0895BB27FB015527AA27B7
:1007C000880F991FAA1FA41710F0A41B83955051DE
:1007D000B9F7A05DAA3308F0A95DA193009779F756
:1007E000B111B1931192CB010C94F603DC01FC0121
:1007F000672F71917723E1F7329704C07C916D9355
:1008000070836291AE17BF07C8F30895F894FFCFC5
:10081000204D6963726F2066617261640A00204E28
:0C082000616E6F2066617261640A000066
:00000001FF
